{
  "_format": "hh-sol-artifact-1",
  "contractName": "MultisigFactory",
  "sourceName": "contracts/MultisigFactory.sol",
  "abi": [
    {
      "inputs": [
        {
          "internalType": "uint256",
          "name": "_quorum",
          "type": "uint256"
        },
        {
          "internalType": "address[]",
          "name": "_validSigners",
          "type": "address[]"
        }
      ],
      "name": "createMultiSigFactory",
      "outputs": [
        {
          "internalType": "contract Multisig",
          "name": "newMulsig_",
          "type": "address"
        },
        {
          "internalType": "uint256",
          "name": "length_",
          "type": "uint256"
        }
      ],
      "stateMutability": "nonpayable",
      "type": "function"
    },
    {
      "inputs": [],
      "name": "getMultiSigClones",
      "outputs": [
        {
          "internalType": "contract Multisig[]",
          "name": "",
          "type": "address[]"
        }
      ],
      "stateMutability": "view",
      "type": "function"
    }
  ],
  "bytecode": "0x608060405234801561001057600080fd5b5061273e806100206000396000f3fe60806040523480156200001157600080fd5b50600436106200003a5760003560e01c8063109dd5e9146200003f578063b755f5901462000061575b600080fd5b6200004962000098565b60405162000058919062000330565b60405180910390f35b6200007f60048036038101906200007991906200055d565b62000128565b6040516200008f929190620005e5565b60405180910390f35b606060008054806020026020016040519081016040528092919081815260200182805480156200011e57602002820191906000526020600020905b8160009054906101000a900473ffffffffffffffffffffffffffffffffffffffff1673ffffffffffffffffffffffffffffffffffffffff1681526020019060010190808311620000d3575b5050505050905090565b60008083836040516200013b90620001da565b62000148929190620006cf565b604051809103906000f08015801562000165573d6000803e3d6000fd5b5091506000829080600181540180825580915050600190039060005260206000200160009091909190916101000a81548173ffffffffffffffffffffffffffffffffffffffff021916908373ffffffffffffffffffffffffffffffffffffffff16021790555060008054905090509250929050565b612005806200070483390190565b600081519050919050565b600082825260208201905092915050565b6000819050602082019050919050565b600073ffffffffffffffffffffffffffffffffffffffff82169050919050565b6000819050919050565b60006200025f62000259620002538462000214565b62000234565b62000214565b9050919050565b600062000273826200023e565b9050919050565b6000620002878262000266565b9050919050565b62000299816200027a565b82525050565b6000620002ad83836200028e565b60208301905092915050565b6000602082019050919050565b6000620002d382620001e8565b620002df8185620001f3565b9350620002ec8362000204565b8060005b83811015620003235781516200030788826200029f565b97506200031483620002b9565b925050600181019050620002f0565b5085935050505092915050565b600060208201905081810360008301526200034c8184620002c6565b905092915050565b6000604051905090565b600080fd5b600080fd5b6000819050919050565b6200037d8162000368565b81146200038957600080fd5b50565b6000813590506200039d8162000372565b92915050565b600080fd5b6000601f19601f8301169050919050565b7f4e487b7100000000000000000000000000000000000000000000000000000000600052604160045260246000fd5b620003f382620003a8565b810181811067ffffffffffffffff82111715620004155762000414620003b9565b5b80604052505050565b60006200042a62000354565b9050620004388282620003e8565b919050565b600067ffffffffffffffff8211156200045b576200045a620003b9565b5b602082029050602081019050919050565b600080fd5b60006200047e8262000214565b9050919050565b620004908162000471565b81146200049c57600080fd5b50565b600081359050620004b08162000485565b92915050565b6000620004cd620004c7846200043d565b6200041e565b90508083825260208201905060208402830185811115620004f357620004f26200046c565b5b835b818110156200052057806200050b88826200049f565b845260208401935050602081019050620004f5565b5050509392505050565b600082601f830112620005425762000541620003a3565b5b813562000554848260208601620004b6565b91505092915050565b600080604083850312156200057757620005766200035e565b5b600062000587858286016200038c565b925050602083013567ffffffffffffffff811115620005ab57620005aa62000363565b5b620005b9858286016200052a565b9150509250929050565b620005ce816200027a565b82525050565b620005df8162000368565b82525050565b6000604082019050620005fc6000830185620005c3565b6200060b6020830184620005d4565b9392505050565b600081519050919050565b6000819050602082019050919050565b620006388162000471565b82525050565b60006200064c83836200062d565b60208301905092915050565b6000602082019050919050565b6000620006728262000612565b6200067e8185620001f3565b93506200068b836200061d565b8060005b83811015620006c2578151620006a688826200063e565b9750620006b38362000658565b9250506001810190506200068f565b5085935050505092915050565b6000604082019050620006e66000830185620005d4565b8181036020830152620006fa818462000665565b9050939250505056fe60806040523480156200001157600080fd5b5060405162002005380380620020058339818101604052810190620000379190620005c0565b60018151101562000074576040517fe767b7df00000000000000000000000000000000000000000000000000000000815260040160405180910390fd5b60018211620000af576040517f5a47a50700000000000000000000000000000000000000000000000000000000815260040160405180910390fd5b60005b81518110156200027057600073ffffffffffffffffffffffffffffffffffffffff16828281518110620000ea57620000e962000626565b5b602002602001015173ffffffffffffffffffffffffffffffffffffffff160362000140576040517f287170f900000000000000000000000000000000000000000000000000000000815260040160405180910390fd5b600460008383815181106200015a576200015962000626565b5b602002602001015173ffffffffffffffffffffffffffffffffffffffff1673ffffffffffffffffffffffffffffffffffffffff16815260200190815260200160002060009054906101000a900460ff1615620001ed576040517f08c379a0000000000000000000000000000000000000000000000000000000008152600401620001e490620006b6565b60405180910390fd5b60016004600084848151811062000209576200020862000626565b5b602002602001015173ffffffffffffffffffffffffffffffffffffffff1673ffffffffffffffffffffffffffffffffffffffff16815260200190815260200160002060006101000a81548160ff0219169083151502179055508080600101915050620000b2565b508051600181905550600460003373ffffffffffffffffffffffffffffffffffffffff1673ffffffffffffffffffffffffffffffffffffffff16815260200190815260200160002060009054906101000a900460ff166200033e576001600460003373ffffffffffffffffffffffffffffffffffffffff1673ffffffffffffffffffffffffffffffffffffffff16815260200190815260200160002060006101000a81548160ff02191690831515021790555060016000815480929190620003389062000707565b91905055505b600154600054111562000388576040517f08c379a00000000000000000000000000000000000000000000000000000000081526004016200037f90620007ca565b60405180910390fd5b816000819055505050620007ec565b6000604051905090565b600080fd5b600080fd5b6000819050919050565b620003c081620003ab565b8114620003cc57600080fd5b50565b600081519050620003e081620003b5565b92915050565b600080fd5b6000601f19601f8301169050919050565b7f4e487b7100000000000000000000000000000000000000000000000000000000600052604160045260246000fd5b6200043682620003eb565b810181811067ffffffffffffffff82111715620004585762000457620003fc565b5b80604052505050565b60006200046d62000397565b90506200047b82826200042b565b919050565b600067ffffffffffffffff8211156200049e576200049d620003fc565b5b602082029050602081019050919050565b600080fd5b600073ffffffffffffffffffffffffffffffffffffffff82169050919050565b6000620004e182620004b4565b9050919050565b620004f381620004d4565b8114620004ff57600080fd5b50565b6000815190506200051381620004e8565b92915050565b6000620005306200052a8462000480565b62000461565b90508083825260208201905060208402830185811115620005565762000555620004af565b5b835b818110156200058357806200056e888262000502565b84526020840193505060208101905062000558565b5050509392505050565b600082601f830112620005a557620005a4620003e6565b5b8151620005b784826020860162000519565b91505092915050565b60008060408385031215620005da57620005d9620003a1565b5b6000620005ea85828601620003cf565b925050602083015167ffffffffffffffff8111156200060e576200060d620003a6565b5b6200061c858286016200058d565b9150509250929050565b7f4e487b7100000000000000000000000000000000000000000000000000000000600052603260045260246000fd5b600082825260208201905092915050565b7f7369676e65722065786973747300000000000000000000000000000000000000600082015250565b60006200069e600d8362000655565b9150620006ab8262000666565b602082019050919050565b60006020820190508181036000830152620006d1816200068f565b9050919050565b7f4e487b7100000000000000000000000000000000000000000000000000000000600052601160045260246000fd5b60006200071482620003ab565b91507fffffffffffffffffffffffffffffffffffffffffffffffffffffffffffffffff8203620007495762000748620006d8565b5b600182019050919050565b7f51756f72756d2073686f756c64206265206c657373207468616e2076616c696460008201527f207369676e657273000000000000000000000000000000000000000000000000602082015250565b6000620007b260288362000655565b9150620007bf8262000754565b604082019050919050565b60006020820190508181036000830152620007e581620007a3565b9050919050565b61180980620007fc6000396000f3fe608060405234801561001057600080fd5b50600436106100b45760003560e01c80633c540687116100715780633c5406871461017e5780635952dd901461019c5780639ace38c2146101cc578063ccb570e314610203578063d40cfc511461021f578063d5f505821461023b576100b4565b80630c7d9728146100b95780631703a018146100d557806317eff51b146100f35780632df45b65146101115780632f430e171461012f57806334f59e391461014b575b600080fd5b6100d360048036038101906100ce9190611357565b61026b565b005b6100dd610592565b6040516100ea9190611393565b60405180910390f35b6100fb610598565b6040516101089190611393565b60405180910390f35b61011961059e565b6040516101269190611393565b60405180910390f35b610149600480360381019061014491906113e7565b6105a4565b005b61016560048036038101906101609190611357565b610a67565b604051610175949392919061143e565b60405180910390f35b610186610ab1565b6040516101939190611393565b60405180910390f35b6101b660048036038101906101b191906114e1565b610ab7565b6040516101c39190611521565b60405180910390f35b6101e660048036038101906101e19190611357565b610ae6565b6040516101fa98979695949392919061154b565b60405180910390f35b61021d600480360381019061021891906115c9565b610b9b565b005b610239600480360381019061023491906113e7565b611052565b005b6102556004803603810190610250919061161c565b6112fc565b6040516102629190611521565b60405180910390f35b600460003373ffffffffffffffffffffffffffffffffffffffff1673ffffffffffffffffffffffffffffffffffffffff16815260200190815260200160002060009054906101000a900460ff166102ee576040517f198951b800000000000000000000000000000000000000000000000000000000815260040160405180910390fd5b60006007600083815260200190815260200160002090506000816000015403610343576040517f5d4e0b5300000000000000000000000000000000000000000000000000000000815260040160405180910390fd5b8060010160019054906101000a900460ff161561038c576040517fccf17ebc00000000000000000000000000000000000000000000000000000000815260040160405180910390fd5b6000548160020154106103cb576040517f53b1baac00000000000000000000000000000000000000000000000000000000815260040160405180910390fd5b600660003373ffffffffffffffffffffffffffffffffffffffff1673ffffffffffffffffffffffffffffffffffffffff168152602001908152602001600020600083815260200190815260200160002060009054906101000a900460ff1615610460576040517fa192840b00000000000000000000000000000000000000000000000000000000815260040160405180910390fd5b6001600660003373ffffffffffffffffffffffffffffffffffffffff1673ffffffffffffffffffffffffffffffffffffffff168152602001908152602001600020600084815260200190815260200160002060006101000a81548160ff0219169083151502179055508060020160008154809291906104de90611678565b919050555080600301339080600181540180825580915050600190039060005260206000200160009091909190916101000a81548173ffffffffffffffffffffffffffffffffffffffff021916908373ffffffffffffffffffffffffffffffffffffffff16021790555060005481600201540361058e5760018160010160016101000a81548160ff0219169083151502179055508060010160009054906101000a900460ff1660ff166000819055505b5050565b60005481565b60015481565b60035481565b6000600560008360ff168152602001908152602001600020905060008160000154036105fc576040517f5d4e0b5300000000000000000000000000000000000000000000000000000000815260040160405180910390fd5b60008160040160009054906101000a900473ffffffffffffffffffffffffffffffffffffffff1673ffffffffffffffffffffffffffffffffffffffff166370a08231306040518263ffffffff1660e01b815260040161065b91906116c0565b602060405180830381865afa158015610678573d6000803e3d6000fd5b505050506040513d601f19601f8201168201806040525081019061069c91906116f0565b905081600101548110156106dc576040517ff4d678b800000000000000000000000000000000000000000000000000000000815260040160405180910390fd5b8160040160149054906101000a900460ff1615610725576040517fccf17ebc00000000000000000000000000000000000000000000000000000000815260040160405180910390fd5b600054826006015410610764576040517f53b1baac00000000000000000000000000000000000000000000000000000000815260040160405180910390fd5b600660003373ffffffffffffffffffffffffffffffffffffffff1673ffffffffffffffffffffffffffffffffffffffff16815260200190815260200160002060008460ff16815260200190815260200160002060009054906101000a900460ff16156107fc576040517fa192840b00000000000000000000000000000000000000000000000000000000815260040160405180910390fd5b600460003373ffffffffffffffffffffffffffffffffffffffff1673ffffffffffffffffffffffffffffffffffffffff16815260200190815260200160002060009054906101000a900460ff1661087f576040517f198951b800000000000000000000000000000000000000000000000000000000815260040160405180910390fd5b6001600660003373ffffffffffffffffffffffffffffffffffffffff1673ffffffffffffffffffffffffffffffffffffffff16815260200190815260200160002060008560ff16815260200190815260200160002060006101000a81548160ff0219169083151502179055506001826006016000828254610900919061171d565b9250508190555081600701339080600181540180825580915050600190039060005260206000200160009091909190916101000a81548173ffffffffffffffffffffffffffffffffffffffff021916908373ffffffffffffffffffffffffffffffffffffffff160217905550600054826006015403610a625760018260040160146101000a81548160ff0219169083151502179055508160040160009054906101000a900473ffffffffffffffffffffffffffffffffffffffff1673ffffffffffffffffffffffffffffffffffffffff1663a9059cbb8360030160009054906101000a900473ffffffffffffffffffffffffffffffffffffffff1684600101546040518363ffffffff1660e01b8152600401610a1d929190611751565b6020604051808303816000875af1158015610a3c573d6000803e3d6000fd5b505050506040513d601f19601f82011682018060405250810190610a6091906117a6565b505b505050565b60076020528060005260406000206000915090508060000154908060010160009054906101000a900460ff16908060010160019054906101000a900460ff16908060020154905084565b60025481565b60066020528160005260406000206020528060005260406000206000915091509054906101000a900460ff1681565b60056020528060005260406000206000915090508060000154908060010154908060020160009054906101000a900473ffffffffffffffffffffffffffffffffffffffff16908060030160009054906101000a900473ffffffffffffffffffffffffffffffffffffffff16908060040160009054906101000a900473ffffffffffffffffffffffffffffffffffffffff16908060040160149054906101000a900460ff16908060050154908060060154905088565b600073ffffffffffffffffffffffffffffffffffffffff163373ffffffffffffffffffffffffffffffffffffffff1603610c01576040517f287170f900000000000000000000000000000000000000000000000000000000815260040160405180910390fd5b600460003373ffffffffffffffffffffffffffffffffffffffff1673ffffffffffffffffffffffffffffffffffffffff16815260200190815260200160002060009054906101000a900460ff16610c84576040517f198951b800000000000000000000000000000000000000000000000000000000815260040160405180910390fd5b60008311610cbe576040517f9cf8540c00000000000000000000000000000000000000000000000000000000815260040160405180910390fd5b600073ffffffffffffffffffffffffffffffffffffffff168273ffffffffffffffffffffffffffffffffffffffff1603610d24576040517f287170f900000000000000000000000000000000000000000000000000000000815260040160405180910390fd5b600073ffffffffffffffffffffffffffffffffffffffff168173ffffffffffffffffffffffffffffffffffffffff1603610d8a576040517f287170f900000000000000000000000000000000000000000000000000000000815260040160405180910390fd5b60008173ffffffffffffffffffffffffffffffffffffffff166370a08231306040518263ffffffff1660e01b8152600401610dc591906116c0565b602060405180830381865afa158015610de2573d6000803e3d6000fd5b505050506040513d601f19601f82011682018060405250810190610e0691906116f0565b905083811015610e42576040517ff4d678b800000000000000000000000000000000000000000000000000000000815260040160405180910390fd5b60006001600254610e53919061171d565b90506000600560008381526020019081526020016000209050818160000181905550858160010181905550338160020160006101000a81548173ffffffffffffffffffffffffffffffffffffffff021916908373ffffffffffffffffffffffffffffffffffffffff160217905550848160030160006101000a81548173ffffffffffffffffffffffffffffffffffffffff021916908373ffffffffffffffffffffffffffffffffffffffff160217905550838160040160006101000a81548173ffffffffffffffffffffffffffffffffffffffff021916908373ffffffffffffffffffffffffffffffffffffffff1602179055504281600501819055506001816006016000828254610f65919061171d565b9250508190555080600701339080600181540180825580915050600190039060005260206000200160009091909190916101000a81548173ffffffffffffffffffffffffffffffffffffffff021916908373ffffffffffffffffffffffffffffffffffffffff1602179055506001600660003373ffffffffffffffffffffffffffffffffffffffff1673ffffffffffffffffffffffffffffffffffffffff168152602001908152602001600020600084815260200190815260200160002060006101000a81548160ff0219169083151502179055506001600254611049919061171d565b50505050505050565b600073ffffffffffffffffffffffffffffffffffffffff163373ffffffffffffffffffffffffffffffffffffffff16036110b8576040517f287170f900000000000000000000000000000000000000000000000000000000815260040160405180910390fd5b600460003373ffffffffffffffffffffffffffffffffffffffff1673ffffffffffffffffffffffffffffffffffffffff16815260200190815260200160002060009054906101000a900460ff1661113b576040517f198951b800000000000000000000000000000000000000000000000000000000815260040160405180910390fd5b60018160ff1611611178576040517f5a47a50700000000000000000000000000000000000000000000000000000000815260040160405180910390fd5b6001548160ff1611156111b7576040517f3ca891ba00000000000000000000000000000000000000000000000000000000815260040160405180910390fd5b600060016002546111c8919061171d565b90506000600760008381526020019081526020016000209050818160000181905550828160010160006101000a81548160ff021916908360ff1602179055506001816002018190555080600301339080600181540180825580915050600190039060005260206000200160009091909190916101000a81548173ffffffffffffffffffffffffffffffffffffffff021916908373ffffffffffffffffffffffffffffffffffffffff1602179055506001600660003373ffffffffffffffffffffffffffffffffffffffff1673ffffffffffffffffffffffffffffffffffffffff168152602001908152602001600020600084815260200190815260200160002060006101000a81548160ff021916908315150217905550600360008154809291906112f290611678565b9190505550505050565b60046020528060005260406000206000915054906101000a900460ff1681565b600080fd5b6000819050919050565b61133481611321565b811461133f57600080fd5b50565b6000813590506113518161132b565b92915050565b60006020828403121561136d5761136c61131c565b5b600061137b84828501611342565b91505092915050565b61138d81611321565b82525050565b60006020820190506113a86000830184611384565b92915050565b600060ff82169050919050565b6113c4816113ae565b81146113cf57600080fd5b50565b6000813590506113e1816113bb565b92915050565b6000602082840312156113fd576113fc61131c565b5b600061140b848285016113d2565b91505092915050565b61141d816113ae565b82525050565b60008115159050919050565b61143881611423565b82525050565b60006080820190506114536000830187611384565b6114606020830186611414565b61146d604083018561142f565b61147a6060830184611384565b95945050505050565b600073ffffffffffffffffffffffffffffffffffffffff82169050919050565b60006114ae82611483565b9050919050565b6114be816114a3565b81146114c957600080fd5b50565b6000813590506114db816114b5565b92915050565b600080604083850312156114f8576114f761131c565b5b6000611506858286016114cc565b925050602061151785828601611342565b9150509250929050565b6000602082019050611536600083018461142f565b92915050565b611545816114a3565b82525050565b600061010082019050611561600083018b611384565b61156e602083018a611384565b61157b604083018961153c565b611588606083018861153c565b611595608083018761153c565b6115a260a083018661142f565b6115af60c0830185611384565b6115bc60e0830184611384565b9998505050505050505050565b6000806000606084860312156115e2576115e161131c565b5b60006115f086828701611342565b9350506020611601868287016114cc565b9250506040611612868287016114cc565b9150509250925092565b6000602082840312156116325761163161131c565b5b6000611640848285016114cc565b91505092915050565b7f4e487b7100000000000000000000000000000000000000000000000000000000600052601160045260246000fd5b600061168382611321565b91507fffffffffffffffffffffffffffffffffffffffffffffffffffffffffffffffff82036116b5576116b4611649565b5b600182019050919050565b60006020820190506116d5600083018461153c565b92915050565b6000815190506116ea8161132b565b92915050565b6000602082840312156117065761170561131c565b5b6000611714848285016116db565b91505092915050565b600061172882611321565b915061173383611321565b925082820190508082111561174b5761174a611649565b5b92915050565b6000604082019050611766600083018561153c565b6117736020830184611384565b9392505050565b61178381611423565b811461178e57600080fd5b50565b6000815190506117a08161177a565b92915050565b6000602082840312156117bc576117bb61131c565b5b60006117ca84828501611791565b9150509291505056fea26469706673582212207da584740b63c1e139087d5e04a2a8f1496ea0d454985eeb4b680d977302c25564736f6c63430008180033a2646970667358221220b5b3ab2aeb7e138df48f12121899b0e92ddf46099df10f420fae26ce6ef1677164736f6c63430008180033",
  "linkReferences": {},
  "deployedLinkReferences": {}
}